{
  "contractName": "Bagel",
  "abi": [
    {
      "constant": true,
      "inputs": [],
      "name": "totalSupply",
      "outputs": [
        {
          "name": "",
          "type": "uint256"
        }
      ],
      "payable": false,
      "stateMutability": "view",
      "type": "function",
      "signature": "0x18160ddd"
    },
    {
      "constant": true,
      "inputs": [],
      "name": "owner",
      "outputs": [
        {
          "name": "",
          "type": "address"
        }
      ],
      "payable": false,
      "stateMutability": "view",
      "type": "function",
      "signature": "0x8da5cb5b"
    },
    {
      "constant": true,
      "inputs": [],
      "name": "remainingSupply",
      "outputs": [
        {
          "name": "",
          "type": "uint256"
        }
      ],
      "payable": false,
      "stateMutability": "view",
      "type": "function",
      "signature": "0xda0239a6"
    },
    {
      "inputs": [
        {
          "name": "_initialSupply",
          "type": "uint256"
        }
      ],
      "payable": false,
      "stateMutability": "nonpayable",
      "type": "constructor",
      "signature": "constructor"
    },
    {
      "anonymous": false,
      "inputs": [
        {
          "indexed": false,
          "name": "from",
          "type": "string"
        },
        {
          "indexed": false,
          "name": "to",
          "type": "string"
        },
        {
          "indexed": false,
          "name": "value",
          "type": "uint256"
        },
        {
          "indexed": false,
          "name": "data",
          "type": "bytes"
        }
      ],
      "name": "Transfer",
      "type": "event",
      "signature": "0xe8cca054678291c72a36fdd68416aea936e6b2720caa266fa5070fbae858d191"
    },
    {
      "constant": false,
      "inputs": [
        {
          "name": "myName",
          "type": "string"
        }
      ],
      "name": "registerMe",
      "outputs": [
        {
          "name": "",
          "type": "bool"
        }
      ],
      "payable": true,
      "stateMutability": "payable",
      "type": "function",
      "signature": "0x218add39"
    },
    {
      "constant": false,
      "inputs": [
        {
          "name": "name",
          "type": "string"
        },
        {
          "name": "num",
          "type": "uint256"
        }
      ],
      "name": "claimBagel",
      "outputs": [
        {
          "name": "",
          "type": "bool"
        }
      ],
      "payable": true,
      "stateMutability": "payable",
      "type": "function",
      "signature": "0x198e8b1f"
    },
    {
      "constant": true,
      "inputs": [
        {
          "name": "name",
          "type": "string"
        },
        {
          "name": "addr",
          "type": "address"
        }
      ],
      "name": "isRegistered",
      "outputs": [
        {
          "name": "",
          "type": "bool"
        }
      ],
      "payable": false,
      "stateMutability": "view",
      "type": "function",
      "signature": "0xbd290b81"
    },
    {
      "constant": true,
      "inputs": [
        {
          "name": "who",
          "type": "string"
        }
      ],
      "name": "balanceOf",
      "outputs": [
        {
          "name": "",
          "type": "uint256"
        }
      ],
      "payable": false,
      "stateMutability": "view",
      "type": "function",
      "signature": "0x35ee5f87"
    },
    {
      "constant": false,
      "inputs": [
        {
          "name": "from",
          "type": "string"
        },
        {
          "name": "to",
          "type": "string"
        },
        {
          "name": "value",
          "type": "uint256"
        }
      ],
      "name": "transfer",
      "outputs": [
        {
          "name": "",
          "type": "bool"
        }
      ],
      "payable": false,
      "stateMutability": "nonpayable",
      "type": "function",
      "signature": "0x9b80b050"
    },
    {
      "constant": false,
      "inputs": [
        {
          "name": "from",
          "type": "string"
        },
        {
          "name": "to",
          "type": "string"
        },
        {
          "name": "value",
          "type": "uint256"
        },
        {
          "name": "data",
          "type": "bytes"
        }
      ],
      "name": "transfer",
      "outputs": [
        {
          "name": "",
          "type": "bool"
        }
      ],
      "payable": false,
      "stateMutability": "nonpayable",
      "type": "function",
      "signature": "0xacbae75e"
    }
  ],
  "bytecode": "0x608060405234801561001057600080fd5b50604051602080611ac68339810180604052602081101561003057600080fd5b810190808051906020019092919050505033600260006101000a81548173ffffffffffffffffffffffffffffffffffffffff021916908373ffffffffffffffffffffffffffffffffffffffff160217905550806000819055508060018190555050611a26806100a06000396000f3fe608060405260043610610099576000357c0100000000000000000000000000000000000000000000000000000000900463ffffffff16806318160ddd1461009e578063198e8b1f146100c9578063218add39146101a657806335ee5f87146102795780638da5cb5b146103555780639b80b050146103ac578063acbae75e1461052d578063bd290b8114610745578063da0239a614610845575b600080fd5b3480156100aa57600080fd5b506100b3610870565b6040518082815260200191505060405180910390f35b61018c600480360360408110156100df57600080fd5b81019080803590602001906401000000008111156100fc57600080fd5b82018360208201111561010e57600080fd5b8035906020019184600183028401116401000000008311171561013057600080fd5b91908080601f016020809104026020016040519081016040528093929190818152602001838380828437600081840152601f19601f82011690508083019250505050505050919291929080359060200190929190505050610876565b604051808215151515815260200191505060405180910390f35b61025f600480360360208110156101bc57600080fd5b81019080803590602001906401000000008111156101d957600080fd5b8201836020820111156101eb57600080fd5b8035906020019184600183028401116401000000008311171561020d57600080fd5b91908080601f016020809104026020016040519081016040528093929190818152602001838380828437600081840152601f19601f8201169050808301925050505050505091929192905050506109f3565b604051808215151515815260200191505060405180910390f35b34801561028557600080fd5b5061033f6004803603602081101561029c57600080fd5b81019080803590602001906401000000008111156102b957600080fd5b8201836020820111156102cb57600080fd5b803590602001918460018302840111640100000000831117156102ed57600080fd5b91908080601f016020809104026020016040519081016040528093929190818152602001838380828437600081840152601f19601f820116905080830192505050505050509192919290505050610b9a565b6040518082815260200191505060405180910390f35b34801561036157600080fd5b5061036a610c22565b604051808273ffffffffffffffffffffffffffffffffffffffff1673ffffffffffffffffffffffffffffffffffffffff16815260200191505060405180910390f35b3480156103b857600080fd5b50610513600480360360608110156103cf57600080fd5b81019080803590602001906401000000008111156103ec57600080fd5b8201836020820111156103fe57600080fd5b8035906020019184600183028401116401000000008311171561042057600080fd5b91908080601f016020809104026020016040519081016040528093929190818152602001838380828437600081840152601f19601f8201169050808301925050505050505091929192908035906020019064010000000081111561048357600080fd5b82018360208201111561049557600080fd5b803590602001918460018302840111640100000000831117156104b757600080fd5b91908080601f016020809104026020016040519081016040528093929190818152602001838380828437600081840152601f19601f82011690508083019250505050505050919291929080359060200190929190505050610c48565b604051808215151515815260200191505060405180910390f35b34801561053957600080fd5b5061072b6004803603608081101561055057600080fd5b810190808035906020019064010000000081111561056d57600080fd5b82018360208201111561057f57600080fd5b803590602001918460018302840111640100000000831117156105a157600080fd5b91908080601f016020809104026020016040519081016040528093929190818152602001838380828437600081840152601f19601f8201169050808301925050505050505091929192908035906020019064010000000081111561060457600080fd5b82018360208201111561061657600080fd5b8035906020019184600183028401116401000000008311171561063857600080fd5b91908080601f016020809104026020016040519081016040528093929190818152602001838380828437600081840152601f19601f82011690508083019250505050505050919291929080359060200190929190803590602001906401000000008111156106a557600080fd5b8201836020820111156106b757600080fd5b803590602001918460018302840111640100000000831117156106d957600080fd5b91908080601f016020809104026020016040519081016040528093929190818152602001838380828437600081840152601f19601f82011690508083019250505050505050919291929050505061126e565b604051808215151515815260200191505060405180910390f35b34801561075157600080fd5b5061082b6004803603604081101561076857600080fd5b810190808035906020019064010000000081111561078557600080fd5b82018360208201111561079757600080fd5b803590602001918460018302840111640100000000831117156107b957600080fd5b91908080601f016020809104026020016040519081016040528093929190818152602001838380828437600081840152601f19601f820116905080830192505050505050509192919290803573ffffffffffffffffffffffffffffffffffffffff1690602001909291905050506118a0565b604051808215151515815260200191505060405180910390f35b34801561085157600080fd5b5061085a611977565b6040518082815260200191505060405180910390f35b60005481565b60008083511415151561088857600080fd5b61089283336118a0565b151561089d57600080fd5b60006108b9662386f26fc100008461197d90919063ffffffff16565b905080341415156108c957600080fd5b82600154101515156108da57600080fd5b6108ef836001546119b090919063ffffffff16565b600181905550610976836003866040518082805190602001908083835b602083101515610931578051825260208201915060208101905060208303925061090c565b6001836020036101000a0380198251168184511680821785525050505050509050019150509081526020016040518091039020600101546119c990919063ffffffff16565b6003856040518082805190602001908083835b6020831015156109ae5780518252602082019150602081019050602083039250610989565b6001836020036101000a038019825116818451168082178552505050505050905001915050908152602001604051809103902060010181905550600191505092915050565b600080825114151515610a0557600080fd5b600073ffffffffffffffffffffffffffffffffffffffff166003836040518082805190602001908083835b602083101515610a555780518252602082019150602081019050602083039250610a30565b6001836020036101000a038019825116818451168082178552505050505050905001915050908152602001604051809103902060000160009054906101000a900473ffffffffffffffffffffffffffffffffffffffff1673ffffffffffffffffffffffffffffffffffffffff16141515610ace57600080fd5b610ad882336118a0565b151515610ae457600080fd5b336003836040518082805190602001908083835b602083101515610b1d5780518252602082019150602081019050602083039250610af8565b6001836020036101000a038019825116818451168082178552505050505050905001915050908152602001604051809103902060000160006101000a81548173ffffffffffffffffffffffffffffffffffffffff021916908373ffffffffffffffffffffffffffffffffffffffff16021790555060019050919050565b600080825114151515610bac57600080fd5b6003826040518082805190602001908083835b602083101515610be45780518252602082019150602081019050602083039250610bbf565b6001836020036101000a0380198251168184511680821785525050505050509050019150509081526020016040518091039020600101549050919050565b600260009054906101000a900473ffffffffffffffffffffffffffffffffffffffff1681565b600080845114158015610c5d57506000835114155b1515610c6857600080fd5b606060006003856040518082805190602001908083835b602083101515610ca45780518252602082019150602081019050602083039250610c7f565b6001836020036101000a038019825116818451168082178552505050505050905001915050908152602001604051809103902060000160009054906101000a900473ffffffffffffffffffffffffffffffffffffffff169050600073ffffffffffffffffffffffffffffffffffffffff168173ffffffffffffffffffffffffffffffffffffffff1614151515610d3957600080fd5b600084118015610db757506003866040518082805190602001908083835b602083101515610d7c5780518252602082019150602081019050602083039250610d57565b6001836020036101000a0380198251168184511680821785525050505050509050019150509081526020016040518091039020600101548411155b1515610dc257600080fd5b610e43846003886040518082805190602001908083835b602083101515610dfe5780518252602082019150602081019050602083039250610dd9565b6001836020036101000a0380198251168184511680821785525050505050509050019150509081526020016040518091039020600101546119b090919063ffffffff16565b6003876040518082805190602001908083835b602083101515610e7b5780518252602082019150602081019050602083039250610e56565b6001836020036101000a038019825116818451168082178552505050505050905001915050908152602001604051809103902060010181905550610f36846003876040518082805190602001908083835b602083101515610ef15780518252602082019150602081019050602083039250610ecc565b6001836020036101000a0380198251168184511680821785525050505050509050019150509081526020016040518091039020600101546119c990919063ffffffff16565b6003866040518082805190602001908083835b602083101515610f6e5780518252602082019150602081019050602083039250610f49565b6001836020036101000a038019825116818451168082178552505050505050905001915050908152602001604051809103902060010181905550610fb1816119e7565b156110e35760008190508073ffffffffffffffffffffffffffffffffffffffff1663c0ee0b8a3387866040518463ffffffff167c0100000000000000000000000000000000000000000000000000000000028152600401808473ffffffffffffffffffffffffffffffffffffffff1673ffffffffffffffffffffffffffffffffffffffff16815260200183815260200180602001828103825283818151815260200191508051906020019080838360005b8381101561107d578082015181840152602081019050611062565b50505050905090810190601f1680156110aa5780820380516001836020036101000a031916815260200191505b5094505050505060006040518083038186803b1580156110c957600080fd5b505afa1580156110dd573d6000803e3d6000fd5b50505050505b7fe8cca054678291c72a36fdd68416aea936e6b2720caa266fa5070fbae858d1918686868560405180806020018060200185815260200180602001848103845288818151815260200191508051906020019080838360005b8381101561115657808201518184015260208101905061113b565b50505050905090810190601f1680156111835780820380516001836020036101000a031916815260200191505b50848103835287818151815260200191508051906020019080838360005b838110156111bc5780820151818401526020810190506111a1565b50505050905090810190601f1680156111e95780820380516001836020036101000a031916815260200191505b50848103825285818151815260200191508051906020019080838360005b83811015611222578082015181840152602081019050611207565b50505050905090810190601f16801561124f5780820380516001836020036101000a031916815260200191505b5097505050505050505060405180910390a16001925050509392505050565b60008082511415801561128357506000855114155b801561129157506000845114155b151561129c57600080fd5b60006003856040518082805190602001908083835b6020831015156112d657805182526020820191506020810190506020830392506112b1565b6001836020036101000a038019825116818451168082178552505050505050905001915050908152602001604051809103902060000160009054906101000a900473ffffffffffffffffffffffffffffffffffffffff169050600073ffffffffffffffffffffffffffffffffffffffff168173ffffffffffffffffffffffffffffffffffffffff161415151561136b57600080fd5b6000841180156113e957506003866040518082805190602001908083835b6020831015156113ae5780518252602082019150602081019050602083039250611389565b6001836020036101000a0380198251168184511680821785525050505050509050019150509081526020016040518091039020600101548411155b15156113f457600080fd5b611475846003886040518082805190602001908083835b602083101515611430578051825260208201915060208101905060208303925061140b565b6001836020036101000a0380198251168184511680821785525050505050509050019150509081526020016040518091039020600101546119b090919063ffffffff16565b6003876040518082805190602001908083835b6020831015156114ad5780518252602082019150602081019050602083039250611488565b6001836020036101000a038019825116818451168082178552505050505050905001915050908152602001604051809103902060010181905550611568846003876040518082805190602001908083835b60208310151561152357805182526020820191506020810190506020830392506114fe565b6001836020036101000a0380198251168184511680821785525050505050509050019150509081526020016040518091039020600101546119c990919063ffffffff16565b6003866040518082805190602001908083835b6020831015156115a0578051825260208201915060208101905060208303925061157b565b6001836020036101000a0380198251168184511680821785525050505050509050019150509081526020016040518091039020600101819055506115e3816119e7565b156117155760008190508073ffffffffffffffffffffffffffffffffffffffff1663c0ee0b8a3387876040518463ffffffff167c0100000000000000000000000000000000000000000000000000000000028152600401808473ffffffffffffffffffffffffffffffffffffffff1673ffffffffffffffffffffffffffffffffffffffff16815260200183815260200180602001828103825283818151815260200191508051906020019080838360005b838110156116af578082015181840152602081019050611694565b50505050905090810190601f1680156116dc5780820380516001836020036101000a031916815260200191505b5094505050505060006040518083038186803b1580156116fb57600080fd5b505afa15801561170f573d6000803e3d6000fd5b50505050505b7fe8cca054678291c72a36fdd68416aea936e6b2720caa266fa5070fbae858d1918686868660405180806020018060200185815260200180602001848103845288818151815260200191508051906020019080838360005b8381101561178857808201518184015260208101905061176d565b50505050905090810190601f1680156117b55780820380516001836020036101000a031916815260200191505b50848103835287818151815260200191508051906020019080838360005b838110156117ee5780820151818401526020810190506117d3565b50505050905090810190601f16801561181b5780820380516001836020036101000a031916815260200191505b50848103825285818151815260200191508051906020019080838360005b83811015611854578082015181840152602081019050611839565b50505050905090810190601f1680156118815780820380516001836020036101000a031916815260200191505b5097505050505050505060405180910390a16001915050949350505050565b6000808351141515156118b257600080fd5b8173ffffffffffffffffffffffffffffffffffffffff166003846040518082805190602001908083835b60208310151561190157805182526020820191506020810190506020830392506118dc565b6001836020036101000a038019825116818451168082178552505050505050905001915050908152602001604051809103902060000160009054906101000a900473ffffffffffffffffffffffffffffffffffffffff1673ffffffffffffffffffffffffffffffffffffffff1614905092915050565b60015481565b6000808284029050600084148061199e575082848281151561199b57fe5b04145b15156119a657fe5b8091505092915050565b60008282111515156119be57fe5b818303905092915050565b60008082840190508381101515156119dd57fe5b8091505092915050565b600080823b90506000811191505091905056fea165627a7a723058203aba3725f4eb3efee8d680ab20e342c49a97c99187c03f3db8fe721ad2402e4a0029",
  "source": "pragma solidity 0.5.0;\nimport \"./ContractReceiver.sol\";\nimport \"./SafeMath.sol\";\n\ncontract ERC223Interface {\n\n    uint public totalSupply;\n    uint public remainingSupply;\n\n    address public owner;\n    \n    function registerMe(string memory myName) public payable \n        returns (bool);\n\n    function isRegistered(string memory name, address addr) \n        public view returns (bool);\n\n    function balanceOf(string memory who) public view \n        returns (uint);\n\n    function transfer(string memory from, string memory to, \n        uint value) public returns (bool);\n\n    function transfer(string memory from, string memory to, \n        uint value, bytes memory data) public returns (bool);\n\n    event Transfer(string from, string to, uint value, \n                   bytes data);\n}\n\ncontract Bagel is ERC223Interface {\n    using SafeMath for uint;\n\n    struct User {\n        address holder;\n        uint balance;\n    }\n    mapping (string => User) internal users;\n\n    constructor(uint _initialSupply) public {\n        owner = msg.sender;\n        totalSupply = _initialSupply;\n        remainingSupply = _initialSupply;\n    }\n\n    function registerMe(string memory myName) public payable \n        returns (bool) {\n            require(bytes(myName).length != 0);\n            require(users[myName].holder == address(0));\n            require(!isRegistered(myName, msg.sender));\n\n            users[myName].holder = msg.sender;\n            return true;\n        }\n\n    function claimBagel(string memory name, uint num) public payable returns (bool) {\n        // token price is arbitrarily set stable, token price = 10000000000000000 <=> 1 bagel = 0.01 ether\n        require(bytes(name).length != 0);\n        require(isRegistered(name, msg.sender));\n        uint value = num.mul(10000000000000000);\n        require(msg.value == value);\n        require(remainingSupply >= num);\n        // require(transfer(admin, name, num))\n        // if there is an admin, do not change '_balance' if the admin transfers token here\n\n        remainingSupply = remainingSupply.sub(num);\n        users[name].balance = users[name].balance.add(num);\n        return true;\n    }\n\n    function isRegistered(string memory name, address addr) \n        public view returns (bool) {\n            require(bytes(name).length != 0);\n            return (users[name].holder==addr);\n        }\n        \n    function isContract(address addr) \n        internal view returns (bool) {\n            uint len;\n            assembly {\n                len := extcodesize(addr)\n            }\n            return (len>0);\n        }\n\n    function balanceOf(string memory who) public view \n        returns (uint) {\n            require(bytes(who).length != 0);\n            return users[who].balance;\n        }\n\n    function transfer(string memory from, string memory to, \n        uint value) public returns (bool) {\n            require(bytes(from).length != 0 && bytes(to).length != 0);\n            bytes memory empty;\n            address addr_to = users[to].holder;\n            require(addr_to != address(0));\n            require(value > 0 && value <= users[from].balance);\n            \n            users[from].balance = users[from].balance.sub(value);\n            users[to].balance =  users[to].balance.add(value);\n            if (isContract(addr_to)) {\n                ContractReceiver receiver = ContractReceiver(addr_to);\n                receiver.tokenFallback(msg.sender, value, empty);\n            }\n            emit Transfer(from, to, value, empty);\n            return true;\n        }\n\n    function transfer(string memory from, string memory to, \n        uint value, bytes memory data) public returns (bool) {\n            require(data.length != 0 && bytes(from).length != 0 && bytes(to).length != 0);\n            address addr_to = users[to].holder;\n            require(addr_to != address(0));\n            require(value > 0 && value <= users[from].balance);\n\n             users[from].balance = users[from].balance.sub(value);\n             users[to].balance = users[to].balance.add(value);\n            if (isContract(addr_to)) {\n                ContractReceiver receiver = ContractReceiver(addr_to);\n                receiver.tokenFallback(msg.sender, value, data);\n            }\n            emit Transfer(from, to, value, data);\n            return true;\n        }\n\n    // self destruct\n\n    event Transfer(string from, string to, uint value, \n                   bytes data);\n}",
  "sourcePath": "/Users/hilda/Bagel/contracts/Bagel.sol",
  "compiler": {
    "name": "solc",
    "version": "0.5.0+commit.1d4f565a.Emscripten.clang"
  },
  "schemaVersion": "3.0.3",
  "updatedAt": "2019-03-21T01:20:18.799Z",
  "devdoc": {
    "methods": {}
  },
  "userdoc": {
    "methods": {}
  }
}